{
    "abi": [
        {
            "type": "constructor",
            "inputs": [
                {
                    "name": "_paymentTokenAddress",
                    "type": "address",
                    "internalType": "address"
                }
            ],
            "stateMutability": "nonpayable"
        },
        {
            "type": "function",
            "name": "buyNFT",
            "inputs": [
                {
                    "name": "_listingId",
                    "type": "uint256",
                    "internalType": "uint256"
                }
            ],
            "outputs": [],
            "stateMutability": "nonpayable"
        },
        {
            "type": "function",
            "name": "buyNFTWithCallback",
            "inputs": [
                {
                    "name": "_listingId",
                    "type": "uint256",
                    "internalType": "uint256"
                }
            ],
            "outputs": [],
            "stateMutability": "nonpayable"
        },
        {
            "type": "function",
            "name": "cancelListing",
            "inputs": [
                {
                    "name": "_listingId",
                    "type": "uint256",
                    "internalType": "uint256"
                }
            ],
            "outputs": [],
            "stateMutability": "nonpayable"
        },
        {
            "type": "function",
            "name": "list",
            "inputs": [
                {
                    "name": "_nftContract",
                    "type": "address",
                    "internalType": "address"
                },
                {
                    "name": "_tokenId",
                    "type": "uint256",
                    "internalType": "uint256"
                },
                {
                    "name": "_price",
                    "type": "uint256",
                    "internalType": "uint256"
                }
            ],
            "outputs": [
                {
                    "name": "",
                    "type": "uint256",
                    "internalType": "uint256"
                }
            ],
            "stateMutability": "nonpayable"
        },
        {
            "type": "function",
            "name": "listings",
            "inputs": [
                {
                    "name": "",
                    "type": "uint256",
                    "internalType": "uint256"
                }
            ],
            "outputs": [
                {
                    "name": "seller",
                    "type": "address",
                    "internalType": "address"
                },
                {
                    "name": "nftContract",
                    "type": "address",
                    "internalType": "address"
                },
                {
                    "name": "tokenId",
                    "type": "uint256",
                    "internalType": "uint256"
                },
                {
                    "name": "price",
                    "type": "uint256",
                    "internalType": "uint256"
                },
                {
                    "name": "isActive",
                    "type": "bool",
                    "internalType": "bool"
                }
            ],
            "stateMutability": "view"
        },
        {
            "type": "function",
            "name": "nextListingId",
            "inputs": [],
            "outputs": [
                {
                    "name": "",
                    "type": "uint256",
                    "internalType": "uint256"
                }
            ],
            "stateMutability": "view"
        },
        {
            "type": "function",
            "name": "paymentToken",
            "inputs": [],
            "outputs": [
                {
                    "name": "",
                    "type": "address",
                    "internalType": "contract IExtendedERC20"
                }
            ],
            "stateMutability": "view"
        },
        {
            "type": "function",
            "name": "tokensReceived",
            "inputs": [
                {
                    "name": "from",
                    "type": "address",
                    "internalType": "address"
                },
                {
                    "name": "amount",
                    "type": "uint256",
                    "internalType": "uint256"
                },
                {
                    "name": "data",
                    "type": "bytes",
                    "internalType": "bytes"
                }
            ],
            "outputs": [
                {
                    "name": "",
                    "type": "bool",
                    "internalType": "bool"
                }
            ],
            "stateMutability": "nonpayable"
        },
        {
            "type": "event",
            "name": "NFTListed",
            "inputs": [
                {
                    "name": "listingId",
                    "type": "uint256",
                    "indexed": true,
                    "internalType": "uint256"
                },
                {
                    "name": "seller",
                    "type": "address",
                    "indexed": true,
                    "internalType": "address"
                },
                {
                    "name": "nftContract",
                    "type": "address",
                    "indexed": true,
                    "internalType": "address"
                },
                {
                    "name": "tokenId",
                    "type": "uint256",
                    "indexed": false,
                    "internalType": "uint256"
                },
                {
                    "name": "price",
                    "type": "uint256",
                    "indexed": false,
                    "internalType": "uint256"
                }
            ],
            "anonymous": false
        },
        {
            "type": "event",
            "name": "NFTListingCancelled",
            "inputs": [
                {
                    "name": "listingId",
                    "type": "uint256",
                    "indexed": true,
                    "internalType": "uint256"
                }
            ],
            "anonymous": false
        },
        {
            "type": "event",
            "name": "NFTSold",
            "inputs": [
                {
                    "name": "listingId",
                    "type": "uint256",
                    "indexed": true,
                    "internalType": "uint256"
                },
                {
                    "name": "buyer",
                    "type": "address",
                    "indexed": true,
                    "internalType": "address"
                },
                {
                    "name": "seller",
                    "type": "address",
                    "indexed": true,
                    "internalType": "address"
                },
                {
                    "name": "nftContract",
                    "type": "address",
                    "indexed": false,
                    "internalType": "address"
                },
                {
                    "name": "tokenId",
                    "type": "uint256",
                    "indexed": false,
                    "internalType": "uint256"
                },
                {
                    "name": "price",
                    "type": "uint256",
                    "indexed": false,
                    "internalType": "uint256"
                }
            ],
            "anonymous": false
        }
    ],
    "bytecode": {
        "object": "0x608060405234801561000f575f80fd5b506040516120e83803806120e883398181016040528101906100319190610142565b5f73ffffffffffffffffffffffffffffffffffffffff168173ffffffffffffffffffffffffffffffffffffffff160361009f576040517f08c379a0000000000000000000000000000000000000000000000000000000008152600401610096906101ed565b60405180910390fd5b805f806101000a81548173ffffffffffffffffffffffffffffffffffffffff021916908373ffffffffffffffffffffffffffffffffffffffff1602179055505061020b565b5f80fd5b5f73ffffffffffffffffffffffffffffffffffffffff82169050919050565b5f610111826100e8565b9050919050565b61012181610107565b811461012b575f80fd5b50565b5f8151905061013c81610118565b92915050565b5f60208284031215610157576101566100e4565b5b5f6101648482850161012e565b91505092915050565b5f82825260208201905092915050565b7f4e46544d61726b65743a207061796d656e7420746f6b656e20616464726573735f8201527f2063616e6e6f74206265207a65726f0000000000000000000000000000000000602082015250565b5f6101d7602f8361016d565b91506101e28261017d565b604082019050919050565b5f6020820190508181035f830152610204816101cb565b9050919050565b611ed0806102185f395ff3fe608060405234801561000f575f80fd5b5060043610610086575f3560e01c8063aaccf1ec11610059578063aaccf1ec146100fc578063d03142631461011a578063dda342bb1461014a578063de74e57b1461017a57610086565b80633013ce291461008a578063305a67a8146100a857806351ed8288146100c457806363f07c83146100e0575b5f80fd5b6100926101ae565b60405161009f91906112d2565b60405180910390f35b6100c260048036038101906100bd9190611326565b6101d1565b005b6100de60048036038101906100d99190611326565b610311565b005b6100fa60048036038101906100f59190611326565b6106e2565b005b610104610930565b6040516101119190611360565b60405180910390f35b610134600480360381019061012f9190611415565b610936565b60405161014191906114a0565b60405180910390f35b610164600480360381019061015f91906114b9565b610d57565b6040516101719190611360565b60405180910390f35b610194600480360381019061018f9190611326565b6111dc565b6040516101a5959493929190611518565b60405180910390f35b5f8054906101000a900473ffffffffffffffffffffffffffffffffffffffff1681565b5f60015f8381526020019081526020015f209050806004015f9054906101000a900460ff16610235576040517f08c379a000000000000000000000000000000000000000000000000000000000815260040161022c906115c3565b60405180910390fd5b3373ffffffffffffffffffffffffffffffffffffffff16815f015f9054906101000a900473ffffffffffffffffffffffffffffffffffffffff1673ffffffffffffffffffffffffffffffffffffffff16146102c5576040517f08c379a00000000000000000000000000000000000000000000000000000000081526004016102bc90611651565b60405180910390fd5b5f816004015f6101000a81548160ff021916908315150217905550817fc46ea9fee66461db46a6ac51d560a291533b66981fb9c09ca8948e8dc8d4247260405160405180910390a25050565b5f60015f8381526020019081526020015f209050806004015f9054906101000a900460ff16610375576040517f08c379a000000000000000000000000000000000000000000000000000000000815260040161036c906115c3565b60405180910390fd5b80600301545f8054906101000a900473ffffffffffffffffffffffffffffffffffffffff1673ffffffffffffffffffffffffffffffffffffffff166370a08231336040518263ffffffff1660e01b81526004016103d2919061166f565b602060405180830381865afa1580156103ed573d5f803e3d5ffd5b505050506040513d601f19601f82011682018060405250810190610411919061169c565b1015610452576040517f08c379a000000000000000000000000000000000000000000000000000000000815260040161044990611737565b60405180910390fd5b5f816004015f6101000a81548160ff0219169083151502179055505f805f9054906101000a900473ffffffffffffffffffffffffffffffffffffffff1673ffffffffffffffffffffffffffffffffffffffff166323b872dd33845f015f9054906101000a900473ffffffffffffffffffffffffffffffffffffffff1685600301546040518463ffffffff1660e01b81526004016104f193929190611755565b6020604051808303815f875af115801561050d573d5f803e3d5ffd5b505050506040513d601f19601f8201168201806040525081019061053191906117b4565b905080610573576040517f08c379a000000000000000000000000000000000000000000000000000000000815260040161056a90611829565b60405180910390fd5b816001015f9054906101000a900473ffffffffffffffffffffffffffffffffffffffff1673ffffffffffffffffffffffffffffffffffffffff166323b872dd835f015f9054906101000a900473ffffffffffffffffffffffffffffffffffffffff163385600201546040518463ffffffff1660e01b81526004016105f993929190611755565b5f604051808303815f87803b158015610610575f80fd5b505af1158015610622573d5f803e3d5ffd5b50505050815f015f9054906101000a900473ffffffffffffffffffffffffffffffffffffffff1673ffffffffffffffffffffffffffffffffffffffff163373ffffffffffffffffffffffffffffffffffffffff16847f88f63fa89cb6cf4da421a869453f09e48f4a2e670eb9dac1f4cd89afa5333372856001015f9054906101000a900473ffffffffffffffffffffffffffffffffffffffff16866002015487600301546040516106d593929190611847565b60405180910390a4505050565b5f60015f8381526020019081526020015f209050806004015f9054906101000a900460ff16610746576040517f08c379a000000000000000000000000000000000000000000000000000000000815260040161073d906115c3565b60405180910390fd5b80600301545f8054906101000a900473ffffffffffffffffffffffffffffffffffffffff1673ffffffffffffffffffffffffffffffffffffffff166370a08231336040518263ffffffff1660e01b81526004016107a3919061166f565b602060405180830381865afa1580156107be573d5f803e3d5ffd5b505050506040513d601f19601f820116820180604052508101906107e2919061169c565b1015610823576040517f08c379a000000000000000000000000000000000000000000000000000000000815260040161081a90611737565b60405180910390fd5b5f826040516020016108359190611360565b60405160208183030381529060405290505f805f9054906101000a900473ffffffffffffffffffffffffffffffffffffffff1673ffffffffffffffffffffffffffffffffffffffff1663a580a1c6308560030154856040518463ffffffff1660e01b81526004016108a8939291906118ec565b6020604051808303815f875af11580156108c4573d5f803e3d5ffd5b505050506040513d601f19601f820116820180604052508101906108e891906117b4565b90508061092a576040517f08c379a000000000000000000000000000000000000000000000000000000000815260040161092190611998565b60405180910390fd5b50505050565b60025481565b5f805f9054906101000a900473ffffffffffffffffffffffffffffffffffffffff1673ffffffffffffffffffffffffffffffffffffffff163373ffffffffffffffffffffffffffffffffffffffff16146109c5576040517f08c379a00000000000000000000000000000000000000000000000000000000081526004016109bc90611a26565b60405180910390fd5b60208383905014610a0b576040517f08c379a0000000000000000000000000000000000000000000000000000000008152600401610a0290611a8e565b60405180910390fd5b5f8383810190610a1b9190611326565b90505f60015f8381526020019081526020015f209050806004015f9054906101000a900460ff16610a81576040517f08c379a0000000000000000000000000000000000000000000000000000000008152600401610a78906115c3565b60405180910390fd5b80600301548614610ac7576040517f08c379a0000000000000000000000000000000000000000000000000000000008152600401610abe90611b1c565b60405180910390fd5b5f816004015f6101000a81548160ff0219169083151502179055505f805f9054906101000a900473ffffffffffffffffffffffffffffffffffffffff1673ffffffffffffffffffffffffffffffffffffffff1663a9059cbb835f015f9054906101000a900473ffffffffffffffffffffffffffffffffffffffff16896040518363ffffffff1660e01b8152600401610b60929190611b3a565b6020604051808303815f875af1158015610b7c573d5f803e3d5ffd5b505050506040513d601f19601f82011682018060405250810190610ba091906117b4565b905080610be2576040517f08c379a0000000000000000000000000000000000000000000000000000000008152600401610bd990611bd1565b60405180910390fd5b816001015f9054906101000a900473ffffffffffffffffffffffffffffffffffffffff1673ffffffffffffffffffffffffffffffffffffffff166323b872dd835f015f9054906101000a900473ffffffffffffffffffffffffffffffffffffffff168a85600201546040518463ffffffff1660e01b8152600401610c6893929190611755565b5f604051808303815f87803b158015610c7f575f80fd5b505af1158015610c91573d5f803e3d5ffd5b50505050815f015f9054906101000a900473ffffffffffffffffffffffffffffffffffffffff1673ffffffffffffffffffffffffffffffffffffffff168873ffffffffffffffffffffffffffffffffffffffff16847f88f63fa89cb6cf4da421a869453f09e48f4a2e670eb9dac1f4cd89afa5333372856001015f9054906101000a900473ffffffffffffffffffffffffffffffffffffffff1686600201548c604051610d4093929190611847565b60405180910390a460019350505050949350505050565b5f808211610d9a576040517f08c379a0000000000000000000000000000000000000000000000000000000008152600401610d9190611c5f565b60405180910390fd5b5f73ffffffffffffffffffffffffffffffffffffffff168473ffffffffffffffffffffffffffffffffffffffff1603610e08576040517f08c379a0000000000000000000000000000000000000000000000000000000008152600401610dff90611ced565b60405180910390fd5b5f8490505f8173ffffffffffffffffffffffffffffffffffffffff16636352211e866040518263ffffffff1660e01b8152600401610e469190611360565b602060405180830381865afa158015610e61573d5f803e3d5ffd5b505050506040513d601f19601f82011682018060405250810190610e859190611d1f565b90503373ffffffffffffffffffffffffffffffffffffffff168173ffffffffffffffffffffffffffffffffffffffff161480610f3757508173ffffffffffffffffffffffffffffffffffffffff1663e985e9c582336040518363ffffffff1660e01b8152600401610ef7929190611d4a565b602060405180830381865afa158015610f12573d5f803e3d5ffd5b505050506040513d601f19601f82011682018060405250810190610f3691906117b4565b5b80610fe457503373ffffffffffffffffffffffffffffffffffffffff168273ffffffffffffffffffffffffffffffffffffffff1663081812fc876040518263ffffffff1660e01b8152600401610f8d9190611360565b602060405180830381865afa158015610fa8573d5f803e3d5ffd5b505050506040513d601f19601f82011682018060405250810190610fcc9190611d1f565b73ffffffffffffffffffffffffffffffffffffffff16145b611023576040517f08c379a000000000000000000000000000000000000000000000000000000000815260040161101a90611de1565b60405180910390fd5b5f60025490506040518060a001604052808373ffffffffffffffffffffffffffffffffffffffff1681526020018873ffffffffffffffffffffffffffffffffffffffff1681526020018781526020018681526020016001151581525060015f8381526020019081526020015f205f820151815f015f6101000a81548173ffffffffffffffffffffffffffffffffffffffff021916908373ffffffffffffffffffffffffffffffffffffffff1602179055506020820151816001015f6101000a81548173ffffffffffffffffffffffffffffffffffffffff021916908373ffffffffffffffffffffffffffffffffffffffff16021790555060408201518160020155606082015181600301556080820151816004015f6101000a81548160ff02191690831515021790555090505060025f81548092919061116290611e2c565b91905055508673ffffffffffffffffffffffffffffffffffffffff168273ffffffffffffffffffffffffffffffffffffffff16827fb0fe4922ac99799c17a4130d5c045ba2ecdf6e15b75b9ea84aaf0dc28724a42b89896040516111c7929190611e73565b60405180910390a48093505050509392505050565b6001602052805f5260405f205f91509050805f015f9054906101000a900473ffffffffffffffffffffffffffffffffffffffff1690806001015f9054906101000a900473ffffffffffffffffffffffffffffffffffffffff1690806002015490806003015490806004015f9054906101000a900460ff16905085565b5f73ffffffffffffffffffffffffffffffffffffffff82169050919050565b5f819050919050565b5f61129a61129561129084611258565b611277565b611258565b9050919050565b5f6112ab82611280565b9050919050565b5f6112bc826112a1565b9050919050565b6112cc816112b2565b82525050565b5f6020820190506112e55f8301846112c3565b92915050565b5f80fd5b5f80fd5b5f819050919050565b611305816112f3565b811461130f575f80fd5b50565b5f81359050611320816112fc565b92915050565b5f6020828403121561133b5761133a6112eb565b5b5f61134884828501611312565b91505092915050565b61135a816112f3565b82525050565b5f6020820190506113735f830184611351565b92915050565b5f61138382611258565b9050919050565b61139381611379565b811461139d575f80fd5b50565b5f813590506113ae8161138a565b92915050565b5f80fd5b5f80fd5b5f80fd5b5f8083601f8401126113d5576113d46113b4565b5b8235905067ffffffffffffffff8111156113f2576113f16113b8565b5b60208301915083600182028301111561140e5761140d6113bc565b5b9250929050565b5f805f806060858703121561142d5761142c6112eb565b5b5f61143a878288016113a0565b945050602061144b87828801611312565b935050604085013567ffffffffffffffff81111561146c5761146b6112ef565b5b611478878288016113c0565b925092505092959194509250565b5f8115159050919050565b61149a81611486565b82525050565b5f6020820190506114b35f830184611491565b92915050565b5f805f606084860312156114d0576114cf6112eb565b5b5f6114dd868287016113a0565b93505060206114ee86828701611312565b92505060406114ff86828701611312565b9150509250925092565b61151281611379565b82525050565b5f60a08201905061152b5f830188611509565b6115386020830187611509565b6115456040830186611351565b6115526060830185611351565b61155f6080830184611491565b9695505050505050565b5f82825260208201905092915050565b7f4e46544d61726b65743a206c697374696e67206973206e6f74206163746976655f82015250565b5f6115ad602083611569565b91506115b882611579565b602082019050919050565b5f6020820190508181035f8301526115da816115a1565b9050919050565b7f4e46544d61726b65743a2063616c6c6572206973206e6f74207468652073656c5f8201527f6c65720000000000000000000000000000000000000000000000000000000000602082015250565b5f61163b602383611569565b9150611646826115e1565b604082019050919050565b5f6020820190508181035f8301526116688161162f565b9050919050565b5f6020820190506116825f830184611509565b92915050565b5f81519050611696816112fc565b92915050565b5f602082840312156116b1576116b06112eb565b5b5f6116be84828501611688565b91505092915050565b7f4e46544d61726b65743a20696e73756666696369656e7420746f6b656e2062615f8201527f6c616e6365000000000000000000000000000000000000000000000000000000602082015250565b5f611721602583611569565b915061172c826116c7565b604082019050919050565b5f6020820190508181035f83015261174e81611715565b9050919050565b5f6060820190506117685f830186611509565b6117756020830185611509565b6117826040830184611351565b949350505050565b61179381611486565b811461179d575f80fd5b50565b5f815190506117ae8161178a565b92915050565b5f602082840312156117c9576117c86112eb565b5b5f6117d6848285016117a0565b91505092915050565b7f4e46544d61726b65743a20746f6b656e207472616e73666572206661696c65645f82015250565b5f611813602083611569565b915061181e826117df565b602082019050919050565b5f6020820190508181035f83015261184081611807565b9050919050565b5f60608201905061185a5f830186611509565b6118676020830185611351565b6118746040830184611351565b949350505050565b5f81519050919050565b5f82825260208201905092915050565b8281835e5f83830152505050565b5f601f19601f8301169050919050565b5f6118be8261187c565b6118c88185611886565b93506118d8818560208601611896565b6118e1816118a4565b840191505092915050565b5f6060820190506118ff5f830186611509565b61190c6020830185611351565b818103604083015261191e81846118b4565b9050949350505050565b7f4e46544d61726b65743a20746f6b656e207472616e73666572207769746820635f8201527f616c6c6261636b206661696c6564000000000000000000000000000000000000602082015250565b5f611982602e83611569565b915061198d82611928565b604082019050919050565b5f6020820190508181035f8301526119af81611976565b9050919050565b7f4e46544d61726b65743a2063616c6c6572206973206e6f7420746865207061795f8201527f6d656e7420746f6b656e20636f6e747261637400000000000000000000000000602082015250565b5f611a10603383611569565b9150611a1b826119b6565b604082019050919050565b5f6020820190508181035f830152611a3d81611a04565b9050919050565b7f4e46544d61726b65743a20696e76616c69642064617461206c656e67746800005f82015250565b5f611a78601e83611569565b9150611a8382611a44565b602082019050919050565b5f6020820190508181035f830152611aa581611a6c565b9050919050565b7f4e46544d61726b65743a20696e636f7272656374207061796d656e7420616d6f5f8201527f756e740000000000000000000000000000000000000000000000000000000000602082015250565b5f611b06602383611569565b9150611b1182611aac565b604082019050919050565b5f6020820190508181035f830152611b3381611afa565b9050919050565b5f604082019050611b4d5f830185611509565b611b5a6020830184611351565b9392505050565b7f4e46544d61726b65743a20746f6b656e207472616e7366657220746f2073656c5f8201527f6c6572206661696c656400000000000000000000000000000000000000000000602082015250565b5f611bbb602a83611569565b9150611bc682611b61565b604082019050919050565b5f6020820190508181035f830152611be881611baf565b9050919050565b7f4e46544d61726b65743a207072696365206d75737420626520677265617465725f8201527f207468616e207a65726f00000000000000000000000000000000000000000000602082015250565b5f611c49602a83611569565b9150611c5482611bef565b604082019050919050565b5f6020820190508181035f830152611c7681611c3d565b9050919050565b7f4e46544d61726b65743a204e465420636f6e74726163742061646472657373205f8201527f63616e6e6f74206265207a65726f000000000000000000000000000000000000602082015250565b5f611cd7602e83611569565b9150611ce282611c7d565b604082019050919050565b5f6020820190508181035f830152611d0481611ccb565b9050919050565b5f81519050611d198161138a565b92915050565b5f60208284031215611d3457611d336112eb565b5b5f611d4184828501611d0b565b91505092915050565b5f604082019050611d5d5f830185611509565b611d6a6020830184611509565b9392505050565b7f4e46544d61726b65743a2063616c6c6572206973206e6f74206f776e6572206e5f8201527f6f7220617070726f766564000000000000000000000000000000000000000000602082015250565b5f611dcb602b83611569565b9150611dd682611d71565b604082019050919050565b5f6020820190508181035f830152611df881611dbf565b9050919050565b7f4e487b71000000000000000000000000000000000000000000000000000000005f52601160045260245ffd5b5f611e36826112f3565b91507fffffffffffffffffffffffffffffffffffffffffffffffffffffffffffffffff8203611e6857611e67611dff565b5b600182019050919050565b5f604082019050611e865f830185611351565b611e936020830184611351565b939250505056fea2646970667358221220dab65f86438552b4cd32be9b272a6e2f3150965cd4d5e56ada2434607e0fe94664736f6c63430008190033",
        "linkReferences": {}
    },
    "methodIdentifiers": {
        "buyNFT(uint256)": "51ed8288",
        "buyNFTWithCallback(uint256)": "63f07c83",
        "cancelListing(uint256)": "305a67a8",
        "list(address,uint256,uint256)": "dda342bb",
        "listings(uint256)": "de74e57b",
        "nextListingId()": "aaccf1ec",
        "paymentToken()": "3013ce29",
        "tokensReceived(address,uint256,bytes)": "d0314263"
    },
    "id": 19
}