{
    "abi": [
        {
            "type": "constructor",
            "inputs": [
                {
                    "name": "_tokenAddress",
                    "type": "address",
                    "internalType": "address"
                }
            ],
            "stateMutability": "nonpayable"
        },
        {
            "type": "function",
            "name": "PERMIT2_ADDRESS",
            "inputs": [],
            "outputs": [
                {
                    "name": "",
                    "type": "address",
                    "internalType": "address"
                }
            ],
            "stateMutability": "view"
        },
        {
            "type": "function",
            "name": "balanceOf",
            "inputs": [
                {
                    "name": "_user",
                    "type": "address",
                    "internalType": "address"
                }
            ],
            "outputs": [
                {
                    "name": "",
                    "type": "uint256",
                    "internalType": "uint256"
                }
            ],
            "stateMutability": "view"
        },
        {
            "type": "function",
            "name": "deposit",
            "inputs": [
                {
                    "name": "_amount",
                    "type": "uint256",
                    "internalType": "uint256"
                }
            ],
            "outputs": [],
            "stateMutability": "nonpayable"
        },
        {
            "type": "function",
            "name": "depositWithPermit2",
            "inputs": [
                {
                    "name": "_amount",
                    "type": "uint256",
                    "internalType": "uint256"
                },
                {
                    "name": "_nonce",
                    "type": "uint256",
                    "internalType": "uint256"
                },
                {
                    "name": "_deadline",
                    "type": "uint256",
                    "internalType": "uint256"
                },
                {
                    "name": "_signature",
                    "type": "bytes",
                    "internalType": "bytes"
                }
            ],
            "outputs": [],
            "stateMutability": "nonpayable"
        },
        {
            "type": "function",
            "name": "deposits",
            "inputs": [
                {
                    "name": "",
                    "type": "address",
                    "internalType": "address"
                }
            ],
            "outputs": [
                {
                    "name": "",
                    "type": "uint256",
                    "internalType": "uint256"
                }
            ],
            "stateMutability": "view"
        },
        {
            "type": "function",
            "name": "token",
            "inputs": [],
            "outputs": [
                {
                    "name": "",
                    "type": "address",
                    "internalType": "contract IERC20"
                }
            ],
            "stateMutability": "view"
        },
        {
            "type": "function",
            "name": "withdraw",
            "inputs": [
                {
                    "name": "_amount",
                    "type": "uint256",
                    "internalType": "uint256"
                }
            ],
            "outputs": [],
            "stateMutability": "nonpayable"
        },
        {
            "type": "event",
            "name": "Deposit",
            "inputs": [
                {
                    "name": "user",
                    "type": "address",
                    "indexed": true,
                    "internalType": "address"
                },
                {
                    "name": "amount",
                    "type": "uint256",
                    "indexed": false,
                    "internalType": "uint256"
                }
            ],
            "anonymous": false
        },
        {
            "type": "event",
            "name": "Withdraw",
            "inputs": [
                {
                    "name": "user",
                    "type": "address",
                    "indexed": true,
                    "internalType": "address"
                },
                {
                    "name": "amount",
                    "type": "uint256",
                    "indexed": false,
                    "internalType": "uint256"
                }
            ],
            "anonymous": false
        }
    ],
    "bytecode": {
        "object": "0x608060405234801561000f575f80fd5b5060405161143b38038061143b83398181016040528101906100319190610142565b5f73ffffffffffffffffffffffffffffffffffffffff168173ffffffffffffffffffffffffffffffffffffffff160361009f576040517f08c379a0000000000000000000000000000000000000000000000000000000008152600401610096906101ed565b60405180910390fd5b805f806101000a81548173ffffffffffffffffffffffffffffffffffffffff021916908373ffffffffffffffffffffffffffffffffffffffff1602179055505061020b565b5f80fd5b5f73ffffffffffffffffffffffffffffffffffffffff82169050919050565b5f610111826100e8565b9050919050565b61012181610107565b811461012b575f80fd5b50565b5f8151905061013c81610118565b92915050565b5f60208284031215610157576101566100e4565b5b5f6101648482850161012e565b91505092915050565b5f82825260208201905092915050565b7f546f6b656e42616e6b3a20746f6b656e20616464726573732063616e6e6f74205f8201527f6265207a65726f00000000000000000000000000000000000000000000000000602082015250565b5f6101d760278361016d565b91506101e28261017d565b604082019050919050565b5f6020820190508181035f830152610204816101cb565b9050919050565b611223806102185f395ff3fe608060405234801561000f575f80fd5b506004361061007b575f3560e01c8063e21b732211610059578063e21b7322146100e7578063e5777b7714610103578063fc0c546a14610121578063fc7e286d1461013f5761007b565b80632e1a7d4d1461007f57806370a082311461009b578063b6b55f25146100cb575b5f80fd5b610099600480360381019061009491906109f7565b61016f565b005b6100b560048036038101906100b09190610a7c565b6103b4565b6040516100c29190610ab6565b60405180910390f35b6100e560048036038101906100e091906109f7565b6103fa565b005b61010160048036038101906100fc9190610b30565b61069a565b005b61010b610971565b6040516101189190610bc3565b60405180910390f35b610129610984565b6040516101369190610c37565b60405180910390f35b61015960048036038101906101549190610a7c565b6109a7565b6040516101669190610ab6565b60405180910390f35b5f81116101b1576040517f08c379a00000000000000000000000000000000000000000000000000000000081526004016101a890610cd0565b60405180910390fd5b8060015f3373ffffffffffffffffffffffffffffffffffffffff1673ffffffffffffffffffffffffffffffffffffffff1681526020019081526020015f20541015610231576040517f08c379a000000000000000000000000000000000000000000000000000000000815260040161022890610d5e565b60405180910390fd5b8060015f3373ffffffffffffffffffffffffffffffffffffffff1673ffffffffffffffffffffffffffffffffffffffff1681526020019081526020015f205f82825461027d9190610da9565b925050819055505f805f9054906101000a900473ffffffffffffffffffffffffffffffffffffffff1673ffffffffffffffffffffffffffffffffffffffff1663a9059cbb33846040518363ffffffff1660e01b81526004016102e0929190610ddc565b6020604051808303815f875af11580156102fc573d5f803e3d5ffd5b505050506040513d601f19601f820116820180604052508101906103209190610e38565b905080610362576040517f08c379a000000000000000000000000000000000000000000000000000000000815260040161035990610ead565b60405180910390fd5b3373ffffffffffffffffffffffffffffffffffffffff167f884edad9ce6fa2440d8a54cc123490eb96d2768479d49ff9c7366125a9424364836040516103a89190610ab6565b60405180910390a25050565b5f60015f8373ffffffffffffffffffffffffffffffffffffffff1673ffffffffffffffffffffffffffffffffffffffff1681526020019081526020015f20549050919050565b5f811161043c576040517f08c379a000000000000000000000000000000000000000000000000000000000815260040161043390610f3b565b60405180910390fd5b805f8054906101000a900473ffffffffffffffffffffffffffffffffffffffff1673ffffffffffffffffffffffffffffffffffffffff166370a08231336040518263ffffffff1660e01b81526004016104959190610bc3565b602060405180830381865afa1580156104b0573d5f803e3d5ffd5b505050506040513d601f19601f820116820180604052508101906104d49190610f6d565b1015610515576040517f08c379a000000000000000000000000000000000000000000000000000000000815260040161050c90611008565b60405180910390fd5b5f805f9054906101000a900473ffffffffffffffffffffffffffffffffffffffff1673ffffffffffffffffffffffffffffffffffffffff166323b872dd3330856040518463ffffffff1660e01b815260040161057393929190611026565b6020604051808303815f875af115801561058f573d5f803e3d5ffd5b505050506040513d601f19601f820116820180604052508101906105b39190610e38565b9050806105f5576040517f08c379a00000000000000000000000000000000000000000000000000000000081526004016105ec90610ead565b60405180910390fd5b8160015f3373ffffffffffffffffffffffffffffffffffffffff1673ffffffffffffffffffffffffffffffffffffffff1681526020019081526020015f205f828254610641919061105b565b925050819055503373ffffffffffffffffffffffffffffffffffffffff167fe1fffcc4923d04b559f4d29a8bfc6cda04eb5b0d3c460751c2402c5c5cc9109c8360405161068e9190610ab6565b60405180910390a25050565b5f85116106dc576040517f08c379a00000000000000000000000000000000000000000000000000000000081526004016106d390610f3b565b60405180910390fd5b845f8054906101000a900473ffffffffffffffffffffffffffffffffffffffff1673ffffffffffffffffffffffffffffffffffffffff166370a08231336040518263ffffffff1660e01b81526004016107359190610bc3565b602060405180830381865afa158015610750573d5f803e3d5ffd5b505050506040513d601f19601f820116820180604052508101906107749190610f6d565b10156107b5576040517f08c379a00000000000000000000000000000000000000000000000000000000081526004016107ac90611008565b60405180910390fd5b5f604051806060016040528060405180604001604052805f8054906101000a900473ffffffffffffffffffffffffffffffffffffffff1673ffffffffffffffffffffffffffffffffffffffff1681526020018981525081526020018681526020018581525090505f60405180604001604052803073ffffffffffffffffffffffffffffffffffffffff1681526020018881525090506e22d473030f116ddee9f6b43ac78ba373ffffffffffffffffffffffffffffffffffffffff166330f28b7a83833388886040518663ffffffff1660e01b815260040161089a9594939291906111a0565b5f604051808303815f87803b1580156108b1575f80fd5b505af11580156108c3573d5f803e3d5ffd5b505050508660015f3373ffffffffffffffffffffffffffffffffffffffff1673ffffffffffffffffffffffffffffffffffffffff1681526020019081526020015f205f828254610913919061105b565b925050819055503373ffffffffffffffffffffffffffffffffffffffff167fe1fffcc4923d04b559f4d29a8bfc6cda04eb5b0d3c460751c2402c5c5cc9109c886040516109609190610ab6565b60405180910390a250505050505050565b6e22d473030f116ddee9f6b43ac78ba381565b5f8054906101000a900473ffffffffffffffffffffffffffffffffffffffff1681565b6001602052805f5260405f205f915090505481565b5f80fd5b5f80fd5b5f819050919050565b6109d6816109c4565b81146109e0575f80fd5b50565b5f813590506109f1816109cd565b92915050565b5f60208284031215610a0c57610a0b6109bc565b5b5f610a19848285016109e3565b91505092915050565b5f73ffffffffffffffffffffffffffffffffffffffff82169050919050565b5f610a4b82610a22565b9050919050565b610a5b81610a41565b8114610a65575f80fd5b50565b5f81359050610a7681610a52565b92915050565b5f60208284031215610a9157610a906109bc565b5b5f610a9e84828501610a68565b91505092915050565b610ab0816109c4565b82525050565b5f602082019050610ac95f830184610aa7565b92915050565b5f80fd5b5f80fd5b5f80fd5b5f8083601f840112610af057610aef610acf565b5b8235905067ffffffffffffffff811115610b0d57610b0c610ad3565b5b602083019150836001820283011115610b2957610b28610ad7565b5b9250929050565b5f805f805f60808688031215610b4957610b486109bc565b5b5f610b56888289016109e3565b9550506020610b67888289016109e3565b9450506040610b78888289016109e3565b935050606086013567ffffffffffffffff811115610b9957610b986109c0565b5b610ba588828901610adb565b92509250509295509295909350565b610bbd81610a41565b82525050565b5f602082019050610bd65f830184610bb4565b92915050565b5f819050919050565b5f610bff610bfa610bf584610a22565b610bdc565b610a22565b9050919050565b5f610c1082610be5565b9050919050565b5f610c2182610c06565b9050919050565b610c3181610c17565b82525050565b5f602082019050610c4a5f830184610c28565b92915050565b5f82825260208201905092915050565b7f546f6b656e42616e6b3a20776974686472617720616d6f756e74206d757374205f8201527f62652067726561746572207468616e207a65726f000000000000000000000000602082015250565b5f610cba603483610c50565b9150610cc582610c60565b604082019050919050565b5f6020820190508181035f830152610ce781610cae565b9050919050565b7f546f6b656e42616e6b3a20696e73756666696369656e74206465706f736974205f8201527f62616c616e636500000000000000000000000000000000000000000000000000602082015250565b5f610d48602783610c50565b9150610d5382610cee565b604082019050919050565b5f6020820190508181035f830152610d7581610d3c565b9050919050565b7f4e487b71000000000000000000000000000000000000000000000000000000005f52601160045260245ffd5b5f610db3826109c4565b9150610dbe836109c4565b9250828203905081811115610dd657610dd5610d7c565b5b92915050565b5f604082019050610def5f830185610bb4565b610dfc6020830184610aa7565b9392505050565b5f8115159050919050565b610e1781610e03565b8114610e21575f80fd5b50565b5f81519050610e3281610e0e565b92915050565b5f60208284031215610e4d57610e4c6109bc565b5b5f610e5a84828501610e24565b91505092915050565b7f546f6b656e42616e6b3a207472616e73666572206661696c65640000000000005f82015250565b5f610e97601a83610c50565b9150610ea282610e63565b602082019050919050565b5f6020820190508181035f830152610ec481610e8b565b9050919050565b7f546f6b656e42616e6b3a206465706f73697420616d6f756e74206d75737420625f8201527f652067726561746572207468616e207a65726f00000000000000000000000000602082015250565b5f610f25603383610c50565b9150610f3082610ecb565b604082019050919050565b5f6020820190508181035f830152610f5281610f19565b9050919050565b5f81519050610f67816109cd565b92915050565b5f60208284031215610f8257610f816109bc565b5b5f610f8f84828501610f59565b91505092915050565b7f546f6b656e42616e6b3a20696e73756666696369656e7420746f6b656e2062615f8201527f6c616e6365000000000000000000000000000000000000000000000000000000602082015250565b5f610ff2602583610c50565b9150610ffd82610f98565b604082019050919050565b5f6020820190508181035f83015261101f81610fe6565b9050919050565b5f6060820190506110395f830186610bb4565b6110466020830185610bb4565b6110536040830184610aa7565b949350505050565b5f611065826109c4565b9150611070836109c4565b925082820190508082111561108857611087610d7c565b5b92915050565b61109781610a41565b82525050565b6110a6816109c4565b82525050565b604082015f8201516110c05f85018261108e565b5060208201516110d3602085018261109d565b50505050565b608082015f8201516110ed5f8501826110ac565b506020820151611100604085018261109d565b506040820151611113606085018261109d565b50505050565b604082015f82015161112d5f85018261108e565b506020820151611140602085018261109d565b50505050565b5f82825260208201905092915050565b828183375f83830152505050565b5f601f19601f8301169050919050565b5f61117f8385611146565b935061118c838584611156565b61119583611164565b840190509392505050565b5f610100820190506111b45f8301886110d9565b6111c16080830187611119565b6111ce60c0830186610bb4565b81810360e08301526111e1818486611174565b9050969550505050505056fea26469706673582212207b684ab29484b9d93f73e1c26d2ca43f44ac26b3e02dc8edd28291788aa07a5964736f6c63430008190033",
        "linkReferences": {}
    },
    "methodIdentifiers": {
        "PERMIT2_ADDRESS()": "e5777b77",
        "balanceOf(address)": "70a08231",
        "deposit(uint256)": "b6b55f25",
        "depositWithPermit2(uint256,uint256,uint256,bytes)": "e21b7322",
        "deposits(address)": "fc7e286d",
        "token()": "fc0c546a",
        "withdraw(uint256)": "2e1a7d4d"
    },
    "id": 31
}