{
    "abi": [
        {
            "type": "constructor",
            "inputs": [
                {
                    "name": "_tokenAddress",
                    "type": "address",
                    "internalType": "address"
                }
            ],
            "stateMutability": "nonpayable"
        },
        {
            "type": "function",
            "name": "balanceOf",
            "inputs": [
                {
                    "name": "_user",
                    "type": "address",
                    "internalType": "address"
                }
            ],
            "outputs": [
                {
                    "name": "",
                    "type": "uint256",
                    "internalType": "uint256"
                }
            ],
            "stateMutability": "view"
        },
        {
            "type": "function",
            "name": "deposit",
            "inputs": [
                {
                    "name": "_amount",
                    "type": "uint256",
                    "internalType": "uint256"
                }
            ],
            "outputs": [],
            "stateMutability": "nonpayable"
        },
        {
            "type": "function",
            "name": "deposits",
            "inputs": [
                {
                    "name": "",
                    "type": "address",
                    "internalType": "address"
                }
            ],
            "outputs": [
                {
                    "name": "",
                    "type": "uint256",
                    "internalType": "uint256"
                }
            ],
            "stateMutability": "view"
        },
        {
            "type": "function",
            "name": "permitDeposit",
            "inputs": [
                {
                    "name": "_amount",
                    "type": "uint256",
                    "internalType": "uint256"
                },
                {
                    "name": "deadline",
                    "type": "uint256",
                    "internalType": "uint256"
                },
                {
                    "name": "v",
                    "type": "uint8",
                    "internalType": "uint8"
                },
                {
                    "name": "r",
                    "type": "bytes32",
                    "internalType": "bytes32"
                },
                {
                    "name": "s",
                    "type": "bytes32",
                    "internalType": "bytes32"
                }
            ],
            "outputs": [],
            "stateMutability": "nonpayable"
        },
        {
            "type": "function",
            "name": "token",
            "inputs": [],
            "outputs": [
                {
                    "name": "",
                    "type": "address",
                    "internalType": "contract IERC20"
                }
            ],
            "stateMutability": "view"
        },
        {
            "type": "function",
            "name": "withdraw",
            "inputs": [
                {
                    "name": "_amount",
                    "type": "uint256",
                    "internalType": "uint256"
                }
            ],
            "outputs": [],
            "stateMutability": "nonpayable"
        },
        {
            "type": "event",
            "name": "Deposit",
            "inputs": [
                {
                    "name": "user",
                    "type": "address",
                    "indexed": true,
                    "internalType": "address"
                },
                {
                    "name": "amount",
                    "type": "uint256",
                    "indexed": false,
                    "internalType": "uint256"
                }
            ],
            "anonymous": false
        },
        {
            "type": "event",
            "name": "Withdraw",
            "inputs": [
                {
                    "name": "user",
                    "type": "address",
                    "indexed": true,
                    "internalType": "address"
                },
                {
                    "name": "amount",
                    "type": "uint256",
                    "indexed": false,
                    "internalType": "uint256"
                }
            ],
            "anonymous": false
        }
    ],
    "bytecode": {
        "object": "0x608060405234801561000f575f80fd5b5060405161137038038061137083398181016040528101906100319190610142565b5f73ffffffffffffffffffffffffffffffffffffffff168173ffffffffffffffffffffffffffffffffffffffff160361009f576040517f08c379a0000000000000000000000000000000000000000000000000000000008152600401610096906101ed565b60405180910390fd5b805f806101000a81548173ffffffffffffffffffffffffffffffffffffffff021916908373ffffffffffffffffffffffffffffffffffffffff1602179055505061020b565b5f80fd5b5f73ffffffffffffffffffffffffffffffffffffffff82169050919050565b5f610111826100e8565b9050919050565b61012181610107565b811461012b575f80fd5b50565b5f8151905061013c81610118565b92915050565b5f60208284031215610157576101566100e4565b5b5f6101648482850161012e565b91505092915050565b5f82825260208201905092915050565b7f546f6b656e42616e6b3a20746f6b656e20616464726573732063616e6e6f74205f8201527f6265207a65726f00000000000000000000000000000000000000000000000000602082015250565b5f6101d760278361016d565b91506101e28261017d565b604082019050919050565b5f6020820190508181035f830152610204816101cb565b9050919050565b611158806102185f395ff3fe608060405234801561000f575f80fd5b5060043610610060575f3560e01c80632e1a7d4d1461006457806370a0823114610080578063b6b55f25146100b0578063ce84daad146100cc578063fc0c546a146100e8578063fc7e286d14610106575b5f80fd5b61007e60048036038101906100799190610a05565b610136565b005b61009a60048036038101906100959190610a8a565b61037b565b6040516100a79190610ac4565b60405180910390f35b6100ca60048036038101906100c59190610a05565b6103c1565b005b6100e660048036038101906100e19190610b46565b610661565b005b6100f0610996565b6040516100fd9190610c18565b60405180910390f35b610120600480360381019061011b9190610a8a565b6109b9565b60405161012d9190610ac4565b60405180910390f35b5f8111610178576040517f08c379a000000000000000000000000000000000000000000000000000000000815260040161016f90610cb1565b60405180910390fd5b8060015f3373ffffffffffffffffffffffffffffffffffffffff1673ffffffffffffffffffffffffffffffffffffffff1681526020019081526020015f205410156101f8576040517f08c379a00000000000000000000000000000000000000000000000000000000081526004016101ef90610d3f565b60405180910390fd5b8060015f3373ffffffffffffffffffffffffffffffffffffffff1673ffffffffffffffffffffffffffffffffffffffff1681526020019081526020015f205f8282546102449190610d8a565b925050819055505f805f9054906101000a900473ffffffffffffffffffffffffffffffffffffffff1673ffffffffffffffffffffffffffffffffffffffff1663a9059cbb33846040518363ffffffff1660e01b81526004016102a7929190610dcc565b6020604051808303815f875af11580156102c3573d5f803e3d5ffd5b505050506040513d601f19601f820116820180604052508101906102e79190610e28565b905080610329576040517f08c379a000000000000000000000000000000000000000000000000000000000815260040161032090610e9d565b60405180910390fd5b3373ffffffffffffffffffffffffffffffffffffffff167f884edad9ce6fa2440d8a54cc123490eb96d2768479d49ff9c7366125a94243648360405161036f9190610ac4565b60405180910390a25050565b5f60015f8373ffffffffffffffffffffffffffffffffffffffff1673ffffffffffffffffffffffffffffffffffffffff1681526020019081526020015f20549050919050565b5f8111610403576040517f08c379a00000000000000000000000000000000000000000000000000000000081526004016103fa90610f2b565b60405180910390fd5b805f8054906101000a900473ffffffffffffffffffffffffffffffffffffffff1673ffffffffffffffffffffffffffffffffffffffff166370a08231336040518263ffffffff1660e01b815260040161045c9190610f49565b602060405180830381865afa158015610477573d5f803e3d5ffd5b505050506040513d601f19601f8201168201806040525081019061049b9190610f76565b10156104dc576040517f08c379a00000000000000000000000000000000000000000000000000000000081526004016104d390611011565b60405180910390fd5b5f805f9054906101000a900473ffffffffffffffffffffffffffffffffffffffff1673ffffffffffffffffffffffffffffffffffffffff166323b872dd3330856040518463ffffffff1660e01b815260040161053a9392919061102f565b6020604051808303815f875af1158015610556573d5f803e3d5ffd5b505050506040513d601f19601f8201168201806040525081019061057a9190610e28565b9050806105bc576040517f08c379a00000000000000000000000000000000000000000000000000000000081526004016105b390610e9d565b60405180910390fd5b8160015f3373ffffffffffffffffffffffffffffffffffffffff1673ffffffffffffffffffffffffffffffffffffffff1681526020019081526020015f205f8282546106089190611064565b925050819055503373ffffffffffffffffffffffffffffffffffffffff167fe1fffcc4923d04b559f4d29a8bfc6cda04eb5b0d3c460751c2402c5c5cc9109c836040516106559190610ac4565b60405180910390a25050565b5f85116106a3576040517f08c379a000000000000000000000000000000000000000000000000000000000815260040161069a90610f2b565b60405180910390fd5b845f8054906101000a900473ffffffffffffffffffffffffffffffffffffffff1673ffffffffffffffffffffffffffffffffffffffff166370a08231336040518263ffffffff1660e01b81526004016106fc9190610f49565b602060405180830381865afa158015610717573d5f803e3d5ffd5b505050506040513d601f19601f8201168201806040525081019061073b9190610f76565b101561077c576040517f08c379a000000000000000000000000000000000000000000000000000000000815260040161077390611011565b60405180910390fd5b5f8054906101000a900473ffffffffffffffffffffffffffffffffffffffff1673ffffffffffffffffffffffffffffffffffffffff1663d505accf333088888888886040518863ffffffff1660e01b81526004016107e097969594939291906110b5565b5f604051808303815f87803b1580156107f7575f80fd5b505af1158015610809573d5f803e3d5ffd5b505050505f805f9054906101000a900473ffffffffffffffffffffffffffffffffffffffff1673ffffffffffffffffffffffffffffffffffffffff166323b872dd3330896040518463ffffffff1660e01b815260040161086b9392919061102f565b6020604051808303815f875af1158015610887573d5f803e3d5ffd5b505050506040513d601f19601f820116820180604052508101906108ab9190610e28565b9050806108ed576040517f08c379a00000000000000000000000000000000000000000000000000000000081526004016108e490610e9d565b60405180910390fd5b8560015f3373ffffffffffffffffffffffffffffffffffffffff1673ffffffffffffffffffffffffffffffffffffffff1681526020019081526020015f205f8282546109399190611064565b925050819055503373ffffffffffffffffffffffffffffffffffffffff167fe1fffcc4923d04b559f4d29a8bfc6cda04eb5b0d3c460751c2402c5c5cc9109c876040516109869190610ac4565b60405180910390a2505050505050565b5f8054906101000a900473ffffffffffffffffffffffffffffffffffffffff1681565b6001602052805f5260405f205f915090505481565b5f80fd5b5f819050919050565b6109e4816109d2565b81146109ee575f80fd5b50565b5f813590506109ff816109db565b92915050565b5f60208284031215610a1a57610a196109ce565b5b5f610a27848285016109f1565b91505092915050565b5f73ffffffffffffffffffffffffffffffffffffffff82169050919050565b5f610a5982610a30565b9050919050565b610a6981610a4f565b8114610a73575f80fd5b50565b5f81359050610a8481610a60565b92915050565b5f60208284031215610a9f57610a9e6109ce565b5b5f610aac84828501610a76565b91505092915050565b610abe816109d2565b82525050565b5f602082019050610ad75f830184610ab5565b92915050565b5f60ff82169050919050565b610af281610add565b8114610afc575f80fd5b50565b5f81359050610b0d81610ae9565b92915050565b5f819050919050565b610b2581610b13565b8114610b2f575f80fd5b50565b5f81359050610b4081610b1c565b92915050565b5f805f805f60a08688031215610b5f57610b5e6109ce565b5b5f610b6c888289016109f1565b9550506020610b7d888289016109f1565b9450506040610b8e88828901610aff565b9350506060610b9f88828901610b32565b9250506080610bb088828901610b32565b9150509295509295909350565b5f819050919050565b5f610be0610bdb610bd684610a30565b610bbd565b610a30565b9050919050565b5f610bf182610bc6565b9050919050565b5f610c0282610be7565b9050919050565b610c1281610bf8565b82525050565b5f602082019050610c2b5f830184610c09565b92915050565b5f82825260208201905092915050565b7f546f6b656e42616e6b3a20776974686472617720616d6f756e74206d757374205f8201527f62652067726561746572207468616e207a65726f000000000000000000000000602082015250565b5f610c9b603483610c31565b9150610ca682610c41565b604082019050919050565b5f6020820190508181035f830152610cc881610c8f565b9050919050565b7f546f6b656e42616e6b3a20696e73756666696369656e74206465706f736974205f8201527f62616c616e636500000000000000000000000000000000000000000000000000602082015250565b5f610d29602783610c31565b9150610d3482610ccf565b604082019050919050565b5f6020820190508181035f830152610d5681610d1d565b9050919050565b7f4e487b71000000000000000000000000000000000000000000000000000000005f52601160045260245ffd5b5f610d94826109d2565b9150610d9f836109d2565b9250828203905081811115610db757610db6610d5d565b5b92915050565b610dc681610a4f565b82525050565b5f604082019050610ddf5f830185610dbd565b610dec6020830184610ab5565b9392505050565b5f8115159050919050565b610e0781610df3565b8114610e11575f80fd5b50565b5f81519050610e2281610dfe565b92915050565b5f60208284031215610e3d57610e3c6109ce565b5b5f610e4a84828501610e14565b91505092915050565b7f546f6b656e42616e6b3a207472616e73666572206661696c65640000000000005f82015250565b5f610e87601a83610c31565b9150610e9282610e53565b602082019050919050565b5f6020820190508181035f830152610eb481610e7b565b9050919050565b7f546f6b656e42616e6b3a206465706f73697420616d6f756e74206d75737420625f8201527f652067726561746572207468616e207a65726f00000000000000000000000000602082015250565b5f610f15603383610c31565b9150610f2082610ebb565b604082019050919050565b5f6020820190508181035f830152610f4281610f09565b9050919050565b5f602082019050610f5c5f830184610dbd565b92915050565b5f81519050610f70816109db565b92915050565b5f60208284031215610f8b57610f8a6109ce565b5b5f610f9884828501610f62565b91505092915050565b7f546f6b656e42616e6b3a20696e73756666696369656e7420746f6b656e2062615f8201527f6c616e6365000000000000000000000000000000000000000000000000000000602082015250565b5f610ffb602583610c31565b915061100682610fa1565b604082019050919050565b5f6020820190508181035f83015261102881610fef565b9050919050565b5f6060820190506110425f830186610dbd565b61104f6020830185610dbd565b61105c6040830184610ab5565b949350505050565b5f61106e826109d2565b9150611079836109d2565b925082820190508082111561109157611090610d5d565b5b92915050565b6110a081610add565b82525050565b6110af81610b13565b82525050565b5f60e0820190506110c85f83018a610dbd565b6110d56020830189610dbd565b6110e26040830188610ab5565b6110ef6060830187610ab5565b6110fc6080830186611097565b61110960a08301856110a6565b61111660c08301846110a6565b9897505050505050505056fea264697066735822122039242a2681a38bbbc3b835feb243fc28d3e29ddef21ec4e036dce4472974a4bd64736f6c63430008190033",
        "linkReferences": {}
    },
    "methodIdentifiers": {
        "balanceOf(address)": "70a08231",
        "deposit(uint256)": "b6b55f25",
        "deposits(address)": "fc7e286d",
        "permitDeposit(uint256,uint256,uint8,bytes32,bytes32)": "ce84daad",
        "token()": "fc0c546a",
        "withdraw(uint256)": "2e1a7d4d"
    },
    "id": 17
}